:020000040800F2
:10000000B8060020D1000008FD1200087712000891
:1000100000000000000000000000000000000000E0
:1000200000000000000000000000000001130008B4
:100030000000000000000000FF120008311400085A
:10004000E3000008E3000008E3000008E300000804
:10005000E3000008E3000008E3000008E3000008F4
:10006000E3000008E3000008E3000008E3000008E4
:10007000E3000008E3000008E3000008E3000008D4
:10008000E3000008E3000008E3000008E3000008C4
:10009000E3000008E3000008E3000008E3000008B4
:1000A000E3000008E3000008E3000008E3000008A4
:1000B000E3000008E3000008E30000080348854669
:1000C00000F056FB0048004739260008B80600201B
:1000D0000448804704480047FEE7FEE7FEE7FEE7E6
:1000E000FEE7FEE797140008BD00000830B50B4698
:1000F000014600202022012409E00D46D5409D4202
:1001000005D31D469540491B254695404019154687
:10011000521E002DF1DC30BD70B5002425460028AC
:1001200001DA01244042002901DA01254942FFF7A2
:10013000DDFFAC4200D04042002C00D0494270BDEF
:10014000F0B51FB40646002082B005464024019158
:1001500000901BE0019922460F46304600F020F83F
:10016000049A059B801A994110D3104619462246DD
:1001700000F07CFA361A8F410197224601200021B7
:10018000009F00F073FA38184D4100902046641E1D
:100190000028DFDC019B00982946324607B0F0BDFD
:1001A00010B5202A04DB0846203AD040002110BDBB
:1001B0000B46D340D0402024A21A91400843194650
:1001C00010BDD2B201E00270401C491EFBD2704744
:1001D0000022F6E710B513460A4604461946FFF713
:1001E000F0FF204610BD10B5002200E0521C835CD9
:1001F0008C5CA34201D1002BF8D1D8B2E1B2401AF5
:1002000010BD0000F0B507460846584087B0C00F43
:10021000049048000E46590040084908BC1A88411D
:1002200005D2384631461E4617460B460246580050
:10023000400810434CD0300D039040055900400D4C
:10024000490D0590401A0290402872DA18030121E6
:10025000000B09050843019004980092002805D07E
:100260000199524200208841009201900298402159
:100270000A1A0199009800F0F9F905460C466B46F8
:1002800007CB00F003FAC0197141039A0E0D002349
:10029000D71756401A467A40164344D0049A002A8B
:1002A0002DD0029A012A039A15DC1205C01A914139
:1002B00001263605001C7141D20F059ED20700931E
:1002C000019202962A46234600F000FA07B0F0BDDC
:1002D00038463146FAE71605224A0F46B218C01AC8
:1002E000B74101210905001C4F4100187F4111460B
:1002F00018187941E20F10436D19644113E0E207C9
:100300006D0815436408C2071443039A01261205B9
:10031000C01A91413605001C7141CE074008304398
:100320004908C01851412A46234600F0C2F9CDE7DA
:10033000FFE7049801224000C117121A00238B41E5
:1003400004983146C417381AA141EEE730B40124AD
:10035000E407634030BC55E730B40124E407614052
:1003600030BC4FE70000E0FFF0B51FB488B00B9938
:100370000998002448400999C00F4900490809918B
:10038000C0070B990090490049080B9109990898FA
:10039000A64608431CD00B990A98084318D0099820
:1003A00001244000420D4800410D09982405000336
:1003B000000B204309900B980003000B20430B9087
:1003C00050181C494018002201901446104605E0C0
:1003D000002001460DB0F0BD032801DA034600E01D
:1003E00003239C46C11A0AAE0AE05F0008ADED5B2C
:1003F0004F00F75B7D430027AA187C41491C5B1E18
:100400006145F2DD410004AB5A522104120C0A434B
:10041000240C401C0828DFDB0198029000997046EC
:1004200001910090059B049A0799069800F04EF9F7
:10043000D0E700000DFCFFFFF0B50C465C4085B036
:10044000E40FE40703944C00002664085900944626
:10045000490802460296224321D062460A431ED032
:100460006200570D4A000E032303550D0124024676
:100470002C492405781B1B0B360B401823432643BD
:10048000614600901C46501AB44103D30098401CAA
:10049000009002E0921800985B41002803DA0020E7
:1004A000014605B0F0BD002001210905074686463A
:1004B00011E064461D46141BB54106D36546521B28
:1004C000B341744607430C43A646CD07400849088C
:1004D000284392185B4105460D43EAD11046184364
:1004E00013D06046194650407140084306D060461C
:1004F000101AB34106D20122002306E00022012394
:10050000DB0702E00122D243531000987446010534
:10051000381C6141029C039D0019694100F0C9F833
:10052000BFE70000FD03000070B54B005B0803430C
:100530000BD04B005C0D002633466542B341D41707
:10054000AD1AA34102DB0020014670BD1205301830
:10055000514170BD0EB5C217C10F5040CA074018B7
:100560000021054B0293019200910A460B4600F0D0
:10057000ADF803B000BD0000330400000EB505491E
:100580000291002100910A460B46019100F09EF86D
:1005900003B000BD3304000070B5CD0F4A0009035D
:1005A0000123090B1B0519430B4BED070024520DCA
:1005B0009A4201DA002070BD074B34339A4203DCC3
:1005C0009A1AFFF7EDFD02E00449511888402C43C8
:1005D000F1D0404270BD0000FF030000CDFBFFFFE3
:1005E0004A0009030123090B1B051943094B10B5E8
:1005F000520D9A4201DA002010BD064B34339A4264
:1006000003DC9A1AFFF7CCFD10BD0349511888404E
:1006100010BD0000FF030000CDFBFFFF10B5002957
:1006200004DB0124E40740428C412146002B04DB1B
:100630001C460123DB075242A3418B4200D1824278
:1006400010BD000010B5002904DB0124E40740427E
:100650008C412146002B04DB1C460123DB07524260
:10066000A341994200D1904210BD000010B5202A4C
:1006700004DB0146203A9140002010BD9140202328
:100680009C1A0346E3401943904010BD10B5202A40
:1006900006DBCB170846203A1041C1170B4306E092
:1006A0000B461341D0402024A21A9140084319461A
:1006B00010BD10B5002B08DA0024401C61419218CF
:1006C0005B411A4301D14008400010BDF0B51FB492
:1006D00082B005460C0003D0084601F0BDF802E0E8
:1006E00001F0BAF820300246009021462846FFF774
:1006F000BDFF049B059A04460F4618431143084367
:1007000014D0184610431BD0009840210A1A1846EE
:100710000599FFF745FD05460E46009A0599049890
:10072000FFF7A4FF084305D0012004E02046394626
:1007300007B0F0BD0020C11705430E432C433743DB
:1007400000990E986305401A7905E40A00220C43CB
:10075000FD0A0A3002D500200146E9E7010510191B
:1007600069410C9C0D9D00196941FFF7A2FFDFE76D
:10077000064C0125064E05E0E36807CC2B430C3CF4
:1007800098471034B442F7D3FFF79CFCD0270008F9
:10079000F027000870470000FCB500230124A6E004
:1007A00027462A469F403A4073D04D68012D05D018
:1007B000022D03D0112D01D0122D16D185680326EC
:1007C000AC465D00AE46AE406546B543AC46CE682D
:1007D0007546AE4065462E43866046680D79BE4339
:1007E000ED06ED0F9D4035434560C6685F0003256B
:1007F000BD40AE46AE4335468E68BE402E43C66011
:100800004E68022E01D0122E14D1DE08B600361822
:100810000196366A5D07B446EE0E0F25B540009688
:100820006646AE43B4460D69009EB54066462E430B
:10083000019D2E6206687546AE430D79AD07AD0F7A
:10084000BD40354305604D68ED004FD52B4DAE6979
:100850002643AE61AD699E08ED07ED0F0095284D6A
:10086000B6007519AC46AD689E07360F0F27B74026
:10087000BD430927FF06B84201D1002715E0214FEB
:10088000B84201D1012710E01F4FB84202D1022720
:100890000BE02BE01D4FB84201D1032705E01C4FB0
:1008A000B84201D1042700E00527B7402F43654631
:1008B000AF60184E35684F689543FF0300D5154368
:1008C000356075684F689543BF0300D51543756063
:1008D000B5684F689543FF0200D51543B560F568CC
:1008E0004F689543BF0200D51543F5605B1C0A684D
:1008F0001546DA4000D053E7FCBD0000001002406E
:10090000000001400004004800080048000C0048B6
:100910000010004800040140002A01D081617047A6
:100920008162704701488068704700000000002025
:1009300010B506480168102211430160002000F044
:1009400007F800F027F8002010BD0000002002404A
:1009500070B504460D4D7D202978C000FFF7C6FB19
:1009600001460B480068FFF7C1FB00F0A1FB00281F
:1009700009D1042C07D200222146401E00F01EF8A7
:1009800000206C6070BD012070BD000000000020E0
:100990000C00002008B508488169012211438161DB
:1009A000816911400091C26901040A43C261C069B2
:1009B0000840009008BD00000010024010B500F093
:1009C0007BFF10BDF8B504460068434DC00352D507
:1009D000E8690026C00007D4E96928040143E961F9
:1009E000E9690140012600913C480168C90510D41D
:1009F0000168821511430160FFF794FF074604E088
:100A0000FFF790FFC01B642824D834480068C00555
:100A1000F6D5286A03273F02384020D06168394064
:100A200081421CD0286A2A6AB843012109040A437A
:100A30002A622A6A8A432A622862C0070FD0FFF717
:100A400071FF009008E0FFF76DFF0099411A2448FC
:100A5000814201D90320F8BD286A8007F3D5286AAE
:100A60006168B84308432862002E04D0E869012178
:100A700009078843E8612078C00705D0286BA16882
:100A800080088000084328632078800706D5286BFB
:100A9000032109048843E168084328632068400370
:100AA00006D5286B032189048843216908432863FC
:100AB0002078800605D5286B10218843616908439A
:100AC00028632088400505D5286B40218843A1690B
:100AD000084328630020F8BD001002400070004069
:100AE00088130000F8B50F4606005FD03D4D28681A
:100AF000C007C00FB84209D22868400840003843F8
:100B000028602868C007C00FB8424FD13068364C03
:100B100081070CD5400704D5606807210902084306
:100B200060606068F0218843B16808436060307895
:100B3000C0072CD07068012810D0022811D00328DB
:100B400012D021688907002930DA61688908890094
:100B500001436160FFF7E6FE009011E02168890320
:100B6000F1E721688901EEE7616BC903EBE7FFF765
:100B7000D9FE0099411A1D48814201D90320F8BDD0
:100B800060680C210840716889008842EFD12868AC
:100B9000C007C00FB8420BD928684008400038434E
:100BA00028602868C007C00FB84201D00120F8BDF6
:100BB0003078400706D56068072109028843F1684C
:100BC0000843606000F028F86168094A0906090FC7
:100BD000515CC840074908600020FFF7B9FE0020BB
:100BE000F8BD000000200240001002408813000001
:100BF000542700080C000020044805490068496893
:100C0000044A4905490F515CC84070470C00002058
:100C1000001002406427000830B519A30FCB89B03B
:100C20006C460FC41AA30FCB0FC41D4A51680C2089
:100C30000B4603401B48042B05D01B4D082B04D04A
:100C40000C2B00D1284609B030BD8B021B0F6C461F
:100C5000E45CD26A04AB1207120FC9039A5C890FD5
:100C6000022901D0032901D0002301E000232846F6
:100C70000021FFF765FA214600F005FEE3E70000DA
:100C800002030405060708090A0B0C0D0E0F1010CD
:100C90000102030405060708090A0B0C0D0E0F10CC
:100CA0000010024000127A00006CDC02FEB5040065
:100CB00070D02078F94EFA4DC00748D06868000718
:100CC000800F01281FD068680007800F022804D118
:100CD0006868C003800F022815D06168012919D007
:100CE00001208004002901D0052917D02968B143CB
:100CF0002960296881432960606800281BD0FFF7BC
:100D000011FE074613E02868800320D5606800289C
:100D1000CED01CE0286830432860EDE72968014305
:100D20002960F7E7FFF7FEFDC01B642870D828682C
:100D30008003F7D50BE0FFF7F5FD074604E0FFF76A
:100D4000F1FDC01B6428F1D828688003F7D420780F
:100D500080073FD568680007800F14D068680007D7
:100D6000800F022804D16868C003800F01280AD0D0
:100D7000E068002828681ED0012108432860FFF79A
:100D8000D1FD07460CE0286880070CD5E0680128F3
:100D900000D108E080E1FFF7C5FDC01B0228C5D8DF
:100DA00028688007F7D52868F82188432169C90099
:100DB000084328600EE0400840002860FFF7B2FDBD
:100DC000074604E0FFF7AEFDC01B0228AED8286836
:100DD0008007F7D42078000723D5E0690028686AE7
:100DE0000FD0012108436862FFF79CFD074604E02D
:100DF000FFF798FDC01B022898D8686A8007F7D5CE
:100E00000FE0400840006862FFF78CFD074605E0F0
:100E1000C3E0FFF787FDC01B022887D8686A8007F8
:100E2000F7D4207804274007002861DA00200190D9
:100E3000E869C00008D4E969B8060143E961E969D5
:100E4000014001200091019096480168C90511D424
:100E50000168821511430160FFF764FD009005E011
:100E6000FFF760FD0099401A642898D88D48006803
:100E7000C005F5D5A06801280AD0002801D00528B2
:100E800011D0286A400840002862286AB84302E06E
:100E9000286A012108432862A068002812D0FFF7C1
:100EA00041FD00900AE0286A38432862F0E7FFF726
:100EB00039FD0099411A7C4881426ED8286A800722
:100EC000F5D50DE0FFF72EFD009006E0FFF72AFDB7
:100ED0000099411A744881425FD8286A8007F5D486
:100EE0000198002804D0E969012000078143E961E5
:100EF0002078C00635D5606901280CD0401D686B8C
:100F000024D038436863686B400840006863FFF78B
:100F100009FD074622E0686B38436863686B01216E
:100F200008436863FFF7FEFC074604E0FFF7FAFC9E
:100F3000C01B022831D8686B8007F7D5686BF82191
:100F40008843A169C900084368630AE0B84368633D
:100F5000F4E7FFF7E7FCC01B02281ED8686B800788
:100F6000F7D42078800637D568680007800F0328FB
:100F700014D068680007800F022804D16868C00395
:100F8000800F03280AD0206A0028686B16D03043EF
:100F90006863FFF7C7FC06460CE062E0686BC003BD
:100FA0001AD5206A012877D116E0FFF7BBFC801B19
:100FB000022856D8686BC003F7D50DE0B0436863CC
:100FC000FFF7B0FC064604E0FFF7ACFC801B0228EC
:100FD00047D8686BC003F7D4606A002866D0696898
:100FE0000907890F022942D00126360602282868FF
:100FF00005D0B0432860FFF795FC044633E0B043CA
:101000002860FFF78FFC074604E0FFF78BFCC01B4E
:10101000022826D828688001F7D4E86A216B0009E5
:1010200000010843E862A16AE06A084369687B221C
:10103000D203914308436860286830432860FFF773
:1010400071FC044604E0FFF76DFC001B022808D881
:1010500028688001F7D529E0FFF764FC001B02280F
:1010600001D90320FEBD28688001F5D41EE00128C7
:10107000F8D06868E96A0322D203A36A02409A4260
:101080000AD10907226B090F914205D10F2189046A
:101090000840E16A884209D00120FEBD000001003D
:1010A0000010024000700040881300000020F4E7A8
:1010B000094910B5401E884201D9012010BD074CD6
:1010C00060610321081F00F0F7FB0020A0610720EA
:1010D0002061002010BD0000FFFFFF0000E000E0E5
:1010E00010B5040003D0606F002802D007E0012093
:1010F00010BD002170200155204600F027F8242063
:10110000606720680168490849000160204600F0D6
:1011100079FA0128ECD0606A002802D0204600F05D
:10112000BBF9206841680922D202914341602068DE
:1011300081682A229143816020680168012211435D
:101140000160204600F00EFA10BD000010B586B018
:10115000044614216846FFF73BF81149206888428D
:101160001CD11048C269012149040A43C261C26905
:101170000A40059242690A4342614069084005906D
:101180000C2000900220019000200290039001208A
:10119000049009206946C006FFF7FEFA06B010BDAC
:1011A0000044004000100240FFB50446406F83B089
:1011B00017460D4620285CD1002D0AD0002F08D0FC
:1011C000A168C001814207D12069002804D1E80745
:1011D00002D0012007B0F0BD204660300290007CB4
:1011E000012846D00298012101740020E0672120E7
:1011F0006067FFF797FB264640360190378277827B
:101200000120A1680003814202D12069002802D098
:101210002F46002511E000270FE000228021204604
:1012200000F0CCFA002815D1002F15D021683878AD
:1012300008857F1C708A401E7082708A019B00287E
:1012400006980090E9D100224021204600F0B6FA2D
:10125000002808D00320BDE728882168C005C00DFC
:101260000885AD1CE6E7202060670299002008741D
:10127000B0E70220AEE7FEE730B587B0142168463C
:10128000FEF7A6FF1A4842690121C9040A434261D8
:1012900042690A4005924269C9000A4342614269B3
:1012A0000A400592426949110A4342614069092591
:1012B0000840ED060590002220212846FFF72CFB70
:1012C0000120400300900B480024019069460294DD
:1012D0000948FFF761FA2020009001200190029454
:1012E000694603942846FFF757FA07B030BD00005F
:1012F00000100240000021100008004870477047AD
:10130000704700000149C968081A704710000020A2
:1013100070B50F4D002406462C80FF20813001F06F
:10132000B9F9A8600B4831460068FEF7DFFE0A49AC
:10133000401E88420BD80949486109480722C36901
:101340001B021B0A4D042B43C3618C610A6170BDF3
:10135000100000200C000020FFFFFF0000E000E074
:1013600004ED00E070B500240C4D12E01820A968CF
:1013700060434218107D00280AD01069FFF7C2FFB1
:10138000D168884204D3E868106151689068884742
:10139000641C68688442E9D370BD0000100000201E
:1013A0000248C168491CC16070470000100000205D
:1013B000FFB51E4C81B0208816460F46102802D378
:1013C000002005B0F0BD00250AE01820A1686843A0
:1013D00009580198FEF707FF0028F2D06D1CEDB206
:1013E00020888542F1D32288019918204243A068C1
:1013F00081502188182251430818C7602088A168AD
:10140000504340180675218804985143A2688918F2
:10141000486021880A9818225143A2688918886078
:101420002088401C20800120CBE700001000002015
:1014300010B5FFF7B5FF10BD30B599B0342168463F
:10144000FEF7C6FE00240D940E940F941C2111A8E3
:101450001094FEF7BDFE022501201021099504918C
:10146000C10300950A9105210390C9040C900B91CA
:101470006846FFF71BFC07200D900F9401210E9585
:1014800010940DA8FFF72EFB11A811951494FFF7E7
:1014900099FA19B030BD704710B5818CC90707D0D3
:1014A00001684A6801235B049A43836A1A434A60CD
:1014B000818C890707D501684A6801231B049A4378
:1014C000C36A1A434A60818C490707D501684A6894
:1014D00001239B049A43036B1A434A60818C0907DA
:1014E00007D501684A680123DB039A43436B1A431B
:1014F0004A60818CC90607D50268916801231B03E5
:101500009943836B19439160818C890607D50168E3
:101510008A6801235B039A43C36B1A438A60818CF8
:10152000490612D503685A6801210905046C8A43EB
:1015300022435A60026C8A4207D102685168032331
:101540005B059943436C19435160818C090607D5AB
:1015500001684A680123DB04806C9A4302434A60B5
:1015600010BD0000F8B500260446C667FFF7DAF99B
:10157000054620680068124F000709D501212B4657
:10158000002249052046009700F018F900280DD1E7
:101590002068006840070BD501212B4600228905F1
:1015A0002046009700F00AF9002801D00320F8BD7A
:1015B00020206067A067603426740020F8BD00001A
:1015C000FFFFFF018C2148430D4910B540184168C9
:1015D000C16081680A6802614A6842618A68826102
:1015E000C968C1610C2101620021416281620C3035
:1015F000FFF776FD002801D0FFF7CCF810BD000002
:101600002000002070B5044680682169E269084323
:101610006169002511432268084311685A4B19403B
:101620000143116021684868032212039043E26875
:1016300010434860A169206A2268084391680B231F
:101640001B02994301439160504B0122206850498D
:10165000120498420AD1086B8007800F3DD0012800
:1016600025D0022825D0032836D11EE0494B9842C8
:101670000AD1086B0321090408402ED0801A16D025
:10168000801A16D0801A0EE0434B984213D1096B92
:101690000320800401401DD001208004091A06D0D7
:1016A000091A06D0081A002816D1022015E00420D5
:1016B00013E0082011E0394988420BD038498842AC
:1016C00008D03849884205D03749884202D0374986
:1016D000884201D1002000E010200123E169DB03F2
:1016E000334E994226D1002806D0022807D004287C
:1016F00017D0082842D11AE0FFF77EFA13E061689C
:101700002C4A48088018FEF7F1FC80B201461039D7
:10171000B14233D82649491C01400007400F084315
:101720001FE0FFF779FA616840004A08EAE761685C
:101730004808E7E7002806D0022807D0042813D07D
:1017400008281BD116E0FFF757FA0FE061681A4A24
:1017500048088018FEF7CAFC80B201461039B14231
:101760000CD82168C8600AE0FFF756FA61684A0899
:101770001018EFE761684808C018EBE70125002062
:1017800020666066284670BDF369FFEF00380140AF
:10179000001002400044004000480040004C00405F
:1017A000005000400014014000180140001C01409E
:1017B000EFFF00000024F40000127A00FFB581B0B2
:1017C00005460F46044660350A9E38E0701C36D048
:1017D000FFF7A8F80499401AB04221D8002E1FD074
:1017E0002068016849072AD5C069C043000526D48E
:1017F00001202168C002086220680168FF22A1322E
:101800009143016020688168490849008160202077
:101810006067A067E06700202874032005B0F0BD72
:1018200020680168FF22A13291430160206881682D
:1018300049084900816020206067A067EBE72068C5
:10184000C1693846884305D0002103988142BDD044
:101850000020E3E70121F8E72021020C01D010214C
:101860001046020A01D010460839020901D010467C
:10187000091F820801D01046891E420801D0881E27
:101880007047081A7047F8B5040C8BB2264682B22E
:101890005E430D0C1046370C584336048019002166
:1018A000794116466E43370C360480197941264635
:1018B0006E438919F8BD00008307FF22DB0E9A40B2
:1018C0008907090E9940002808DB830809489B0016
:1018D0001B18186890430843186070470007000FF2
:1018E0000838830804489B001B18D86990430843B4
:1018F000D861704700E400E000ED00E002E008C8B5
:10190000121F08C1002AFAD170477047002001E079
:1019100001C1121F002AFBD1704770B50546002493
:1019200007E02868411C29600A2100784C43303CBC
:1019300004192868007800F0EFFA0028F1D1204659
:1019400070BD0000FFB589B0129C139D0026F643C0
:1019500022462B4620462946169FFEF75FFE0DD1F4
:101960003246B04B20462946FEF76CFE06D332467F
:10197000AD4B20462946FEF751FE0BD2159914981F
:1019800002AA0195009483C209AE0FCE00F07AF945
:101990000DB0F0BD0022134620462946FEF73EFE5C
:1019A00004D201200790C007454001E000200790C5
:1019B000780501D4062014906A009C4B520D280330
:1019C0009B49D618000B014320460022994BFEF795
:1019D000BDFC994A994BFEF7C7FC00900191304637
:1019E000FEF7B8FD964A974BFEF7BEFC964A974B1A
:1019F000FEF708FC019B009AFEF704FCFEF7CCFD05
:101A00000646FEF7A7FD924A924B01910090FEF721
:101A1000ABFC0022904BFEF7F5FBFEF7BDFD0590F9
:101A2000FEF798FD8D4A8E4BFEF79EFC02910490C6
:101A30008C4A8D4B01990098FEF796FC029B049A04
:101A4000FEF784FC02460B4601910090FEF78CFCE9
:101A5000049005980391010575480022081802902A
:101A6000824B03990498FEF7E7FC0022804BFEF7B7
:101A7000C9FB02460B4603990498FEF7DDFC0022E1
:101A80007C4BFEF7BFFB02460B4603990498FEF71A
:101A9000D3FC05910890012100208907019B009A41
:101AA000FEF754FC059B089AFEF7ACFB03910490EB
:101AB000012201990098FEF737FD039B049AFEF777
:101AC000BBFC00225A4BFEF79DFB0022029BFEF757
:101AD0004BFC0090019102460B4605910490204674
:101AE0002946FEF79BFD08D20022614B761E059920
:101AF0000498FEF7A1FC0191009030466330C7289E
:101B000001D2042000E005200590380524D55A4A6A
:101B10005A4B20462946FEF795FD15D80022584B12
:101B200020462946FEF77AFD0ED21498B04202DD17
:101B3000801B401E00E0002014900120800207431B
:101B400000200646059007E01498002804D0780588
:101B500002D51498401E149005991598884201D911
:101B6000401A00E000200490B80703D5002901D0F6
:101B700000200490002E07D020462946019B009AA1
:101B8000FEF75AFC04460D460B980890079800286B
:101B900002D00120C007454001213846C9028843D0
:101BA000049A14990490019500940392029109A853
:101BB0000FC800F067F80446059800282FD0651C70
:101BC000B80601D5452000E065202246099C0C9B03
:101BD0000A99A04705980522401E00210A23049077
:101BE000F00F029305920391002E00DA76420096E0
:101BF00001902A460C9B0A99099800F0FDF90446C9
:101C0000B80707D40BE02246641C099D20200C9BDA
:101C10000A99A8470898211A15988142F3D32046BB
:101C2000B6E60000FFFFEF7FFFFFEFFF01FCFFFFC5
:101C30000000F03F0000F83F61436F63A787D23F89
:101C4000FB799F501344D33FB3C8608B288AC63FAB
:101C500071A379094F930A400000E03FEF39FAFE83
:101C6000422EE63F1655B5BBB16B024000002C403A
:101C700000002440000018402D431CEBE2361A3FC0
:101C800080842E41FFB58FB0189D199E00242A46EE
:101C90003346284631461C9FFEF7C0FC03D0032183
:101CA00091A21B980AE00022D243904B284631466D
:101CB000FEF7B4FC09D21B9804218DA20FAC039748
:101CC0000092019102900FCC0AE10022D2438A4B8C
:101CD00028463146FEF7B6FC08D21B98790702D594
:101CE000042186A2EAE7032186A2E7E70022864BC9
:101CF00028463146FEF7A6FC06D30022834B284631
:101D00003146FEF78BFC0BD21A981B9902AA01965A
:101D1000009583C20FAC0FCCFFF714FE13B0F0BDDB
:101D2000002002460346049028463146FEF776FC22
:101D300003D201200490C007464078050BD406204A
:101D40001A9008E0302005A908551A98641C401E16
:101D50001A90202C02D21A980928F3D82846314626
:101D6000FEF71AFC0390FEF7F5FB2A463346FEF712
:101D7000F3FA1A9A664BD2009B180D920CCBFEF721
:101D8000F3FA01910090FEF72BFC0290FEF7F6FBB0
:101D9000019B009AFEF7E0FA00225E4B0191009051
:101DA000FEF750FC11D20298401C0290FEF7E6FBB1
:101DB000574B0D9A9B180CCBFEF744FC15D800200E
:101DC00002900398401C03900FE00022514B0199B0
:101DD0000098FEF723FC08D302980299C007C00FB1
:101DE000401E084201D1481C02901A98002802D0D7
:101DF000054605AE26E00398FEF7ACFB2A463346BF
:101E0000FEF7AAFA05460E460022424BFEF71AFCE0
:101E100006D900223F4B28463146FEF713FC1FD25D
:101E20000398C0071CD00398401C039018E00A21B7
:101E30006D1E0298FEF75AF930313155641C02903C
:101E4000002805D0202CF2D317E03055641C00E0A8
:101E50003020202C11D26D1EF7D22E203055641C5C
:101E600005AD202C09D20A210398FEF755F930312F
:101E70002955641C03900028F3D1B80717D4F8073C
:101E800015D01B98002808D038460C21084004992A
:101E9000084302D01B98401E1B90302005A91B9AB6
:101EA000944204D2202C13D20855641CF7E7202C4E
:101EB0000ED20498002801D02D2106E0780701D524
:101EC0002B2102E0380703D5202105A80155641C09
:101ED00005A91B980FAD03970194009102900FCDB7
:101EE00000F0FEF81AE700006E616E00FFFFEFFFE2
:101EF000666E692D00000000FFFFEF7F666E692BA4
:101F000000000000666E690065CDCD4165CDCDC194
:101F1000702700080000E03F3038092801D8012070
:101F2000704700207047FFB585B09C460FAF49CF82
:101F3000964624CF14990E9C8F0719D4002D06D0F5
:101F4000CF0704D00C270F401F4300D06D1E302751
:101F5000904207D2202805D22754401CF8E73027AA
:101F60002754401CCF0703D0A84201D22028F6D323
:101F7000CF0626D54F050BD4002809D0904201D0BA
:101F8000A84205D1401E03D0102E03D1401E04E00C
:101F9000102E02D0022E0AD00EE08A0603D420288A
:101FA0001ED2782606E020281AD2582602E02028E1
:101FB00016D262262654401C202811D230262654E0
:101FC000401C20280CD2002B01D02D2206E04A070D
:101FD00001D52B2202E00A0702D520222254401C00
:101FE0000190009403916346724602950699059804
:101FF00000F076F809B0F0BDFFB58FB01898002456
:102000001A9F1D9D002801D110218D43690507AE3F
:1020100001D5002814D03946FEF768F8C9B20A295C
:1020200001D2303106E0AA0601D5412200E061224A
:1020300051180A393155641C002801D0202CEAD3EC
:102040001C991B9804AA039723C219980290009622
:1020500001940FA80FC8FFF766FF13B0F0BDFFB5DE
:102060008FB018981999002402461D9F1C9E209D30
:102070000A4301D1102295436A0502D502460A435C
:1020800017D032463B46FEF75BF8D2B20A2A01D29D
:10209000303206E0AB0601D5412300E061239A18F7
:1020A0000A3A07AB1A550246641C0A4301D0202C99
:1020B000E7D31E981F9904AA039623C21A9807A96A
:1020C0000FAF0194009102900FCFFFF72CFF13B0D8
:1020D000F0BD10B5002801D000F034F810BD7047F5
:1020E000FFB581B007460D980B9E144600928007FD
:1020F00014D1354606E02246641C2020049B029938
:10210000B8476D1C0C988542F5D307E02246641C45
:102110000A98761E805D049B0299B847002EF5D17F
:102120000D98800706D40AE02246641C2020049BF8
:102130000299B8470098211A0C988142F4D320469E
:1021400005B0F0BD01B50023DB430122694602481A
:10215000FFF72AF808BD00002C000020FFB589B069
:1021600005460A980024002800D1F84D88E125286A
:1021700004D02246641C0B9B0A9952E2491C0020A1
:1021800001900C91084601782B291CD004DC2029F1
:102190001CD0232904D11CE02D2911D030290AD0CC
:1021A0000026C8B2FFF7B8FE002819D00CA8FFF728
:1021B000B4FB064624E0019A01210A4301920CE097
:1021C0000222019907E00422019904E00822019902
:1021D00001E00199102211430191401C0C90D2E7BB
:1021E0000C9908782A280BD1129840C81290002E1A
:1021F00004DA01980222104376420190491C0C91A6
:10220000002000900C9801782E291DD101220199FF
:1022100092021143401C01910C900078FFF77CFE64
:10222000002804D00CA8FFF778FB00900CE00C9875
:1022300001782A2908D1129904C91291002A00DCD8
:102240000022401C00920C900C9908786C280AD04F
:1022500004DC682812D06A281FD12FE0742831D0FE
:102260007A281AD12EE0FF22019801321043491C2E
:102270000C91019008786C2820D00EE00198802203
:102280001043491C0C9101900878682805D10198E9
:1022900040221043491C0C910190087865280CD00D
:1022A0001BDC58282BD011DC252870D04528F6D00F
:1022B00046286DD0472800D05BE705E10122520295
:1022C0000198E6E7FF2201320198E2E7622816D082
:1022D000632873D06428EFD111E070286FD008DC38
:1022E000662855D06728E8D0692808D06F28E3D140
:1022F00005E0732873D0752801D07828DCD17828C0
:102300000BD0582809D06F2838D0622838D0019ACD
:102310000A2110239A43019202E01021582831D05B
:10232000692805D0642803D0019A0C239A430192AE
:10233000019A520503D5019A520852000192692868
:1023400027D0642825D00198800569D51298019B73
:10235000C01DC008009AC00006920022079608938C
:1023600005920292049106C80192009112902246B1
:1023700028460B9B0A99FFF772FEC9E00821D3E7B4
:102380000221D1E7019A20231A430192CCE743E1CD
:1023900080E00198800523D51298019FC01DC308D5
:1023A000DB0005CB1293009B06930023089707964A
:1023B00005930491002A03DA012102E0AAE020E15A
:1023C0000021029100210B46091A934101DA1146BE
:1023D00002E000214042914101910090C7E7C2E034
:1023E0000198C00504D5129A10680DE0404215E02E
:1023F0000198400602D5129A107805E0019800066F
:10240000F1D5129A108800B2121D1292019B009A07
:1024100002AF059346C7C10F0028E7DD00900DE02D
:102420000198C00512D50098019A04960592029170
:1024300003901298002104C8009212900191224644
:1024400028460B9B0A99FFF7D7FD61E001984006EB
:1024500002D5129A107807E00198129A000602D568
:10246000108880B200E01068121D1292019B009A41
:1024700002AF059346C70021D0E70C98401C0C9092
:102480000C990878002800D071E60B98844273D22A
:102490002246C9E0462803D1019820210843019033
:1024A0001298019AC01DC0080099C00003960492BA
:1024B000029106C8019200911290224628460B9B79
:1024C0000A99FFF7DFFB23E0672801D0472804D1F2
:1024D00001220199D20211430191452801D04728D8
:1024E00003D101982021084301901298019AC01D40
:1024F000C0080099C00003960492029106C8019298
:1025000000911290224628460B9B0A99FFF71AFA6F
:102510000446B2E701980127800706D509E0224664
:10252000641C20200B9B0A99A84738467F1CB042A8
:10253000F5D3129922460878091D1291641C0B9B51
:102540000A99A8470198800708D496E7DF20000879
:102550002246641C20200B9B0A99A84738467F1C02
:10256000B042F5D389E7129804C8129000980292FD
:10257000002802D0014602E055E00021C943104680
:1025800000E0401C0378002B01D0491EF9D2871AC5
:102590000198400503D50098874200D3074601986B
:1025A000800706D512E02246641C20200B9B0A9966
:1025B000A84738467F1CB042F5D307E0029922466F
:1025C000491C0291641C0B9B0A99A8470298007849
:1025D000002807D001994905F0D50099491E0091BE
:1025E000491CEBD10198800706D446E72246641CBB
:1025F00020200B9B0A99A84738467F1CB042F5D390
:102600003BE70199212211430820009A10230293ED
:102610000392059104900CE72246641C25200B9B35
:102620000A99A84729E7421E034600200A99A847AD
:1026300020460DB0F0BD000008B5FEF779F9FEF7B1
:10264000FBFE7D24E4002046FEF762FEFEF714FE4A
:102650000020FEF7B7FF0025084B0122214608A005
:102660000095FEF7A5FE084B0122214607A0009524
:10267000FEF79EFEFEF776FEFCE700002527000829
:102680005072696E746631003D2700085072696EA1
:1026900074663200F0B50B30C108C900144F002633
:1026A000144A0FE003688B420BD38B4205D95C1AA6
:1026B0004318456830C3083B00E04368136002C01C
:1026C00004E0021D10680028ECD13046002803D138
:1026D0003868002801D00020F0BD064A0648106086
:1026E000064A121AD208D20044C001203860D7E747
:1026F000B0000020AC000020BC000020B802002088
:102700000FB41CB505A800900022D24301A90448CB
:10271000049BFFF723FD1CBC08BC04B01847000055
:10272000D320000810B502A0FFF7EAFF10BD00009B
:102730007461736B5F310D0A0000000010B502A0D8
:10274000FFF7DEFF10BD00007461736B5F320D0A8E
:10275000000000000000000000000000010203046F
:102760000607080900000000010203040000000041
:10277000000000000000F03F0000000000002440C6
:1027800000000000000059400000000000408F40A1
:10279000000000000088C34000000000006AF8400C
:1027A0000000000080842E4100000000D012634130
:1027B0000000000084D797410000000065CDCD41A6
:1027C00000C2010000000000000000000000000046
:1027D000F027000800000020B4000000FC180008EA
:1027E000A4280008B4000020040600000C1900080A
:1027F00001000000040000000000000000127A0048
:1028000000000000100000000000000000000000B8
:102810000000000000440040C02700080000000045
:1028200000000000000000000000000000000000A8
:102830000000000000000000000000000000000098
:102840000000000000000000000000000000000088
:102850000000000000000000000000000000000078
:102860000000000000000000000000000000000068
:102870000000000000000000000000000000000058
:102880000000000000000000000000000000000048
:102890000000000000000000000000000000000038
:0428A0000000000034
:04000005080000BD32
:00000001FF
